{
  "contractName": "Dollar",
  "abi": [
    {
      "inputs": [],
      "stateMutability": "nonpayable",
      "type": "constructor"
    },
    {
      "anonymous": false,
      "inputs": [
        {
          "indexed": true,
          "internalType": "address",
          "name": "owner",
          "type": "address"
        },
        {
          "indexed": true,
          "internalType": "address",
          "name": "spender",
          "type": "address"
        },
        {
          "indexed": false,
          "internalType": "uint256",
          "name": "value",
          "type": "uint256"
        }
      ],
      "name": "Approval",
      "type": "event"
    },
    {
      "anonymous": false,
      "inputs": [
        {
          "indexed": true,
          "internalType": "address",
          "name": "previousOwner",
          "type": "address"
        },
        {
          "indexed": true,
          "internalType": "address",
          "name": "newOwner",
          "type": "address"
        }
      ],
      "name": "OwnershipTransferred",
      "type": "event"
    },
    {
      "anonymous": false,
      "inputs": [
        {
          "indexed": true,
          "internalType": "address",
          "name": "from",
          "type": "address"
        },
        {
          "indexed": true,
          "internalType": "address",
          "name": "to",
          "type": "address"
        },
        {
          "indexed": false,
          "internalType": "uint256",
          "name": "value",
          "type": "uint256"
        }
      ],
      "name": "Transfer",
      "type": "event"
    },
    {
      "inputs": [
        {
          "internalType": "address",
          "name": "owner",
          "type": "address"
        },
        {
          "internalType": "address",
          "name": "spender",
          "type": "address"
        }
      ],
      "name": "allowance",
      "outputs": [
        {
          "internalType": "uint256",
          "name": "",
          "type": "uint256"
        }
      ],
      "stateMutability": "view",
      "type": "function",
      "constant": true
    },
    {
      "inputs": [
        {
          "internalType": "address",
          "name": "spender",
          "type": "address"
        },
        {
          "internalType": "uint256",
          "name": "amount",
          "type": "uint256"
        }
      ],
      "name": "approve",
      "outputs": [
        {
          "internalType": "bool",
          "name": "",
          "type": "bool"
        }
      ],
      "stateMutability": "nonpayable",
      "type": "function"
    },
    {
      "inputs": [
        {
          "internalType": "address",
          "name": "account",
          "type": "address"
        }
      ],
      "name": "balanceOf",
      "outputs": [
        {
          "internalType": "uint256",
          "name": "",
          "type": "uint256"
        }
      ],
      "stateMutability": "view",
      "type": "function",
      "constant": true
    },
    {
      "inputs": [
        {
          "internalType": "uint256",
          "name": "amount",
          "type": "uint256"
        }
      ],
      "name": "burn",
      "outputs": [],
      "stateMutability": "nonpayable",
      "type": "function"
    },
    {
      "inputs": [
        {
          "internalType": "address",
          "name": "account",
          "type": "address"
        },
        {
          "internalType": "uint256",
          "name": "amount",
          "type": "uint256"
        }
      ],
      "name": "burnFrom",
      "outputs": [],
      "stateMutability": "nonpayable",
      "type": "function"
    },
    {
      "inputs": [
        {
          "internalType": "address",
          "name": "spender",
          "type": "address"
        },
        {
          "internalType": "uint256",
          "name": "subtractedValue",
          "type": "uint256"
        }
      ],
      "name": "decreaseAllowance",
      "outputs": [
        {
          "internalType": "bool",
          "name": "",
          "type": "bool"
        }
      ],
      "stateMutability": "nonpayable",
      "type": "function"
    },
    {
      "inputs": [
        {
          "internalType": "address",
          "name": "spender",
          "type": "address"
        },
        {
          "internalType": "uint256",
          "name": "addedValue",
          "type": "uint256"
        }
      ],
      "name": "increaseAllowance",
      "outputs": [
        {
          "internalType": "bool",
          "name": "",
          "type": "bool"
        }
      ],
      "stateMutability": "nonpayable",
      "type": "function"
    },
    {
      "inputs": [],
      "name": "name",
      "outputs": [
        {
          "internalType": "string",
          "name": "",
          "type": "string"
        }
      ],
      "stateMutability": "view",
      "type": "function",
      "constant": true
    },
    {
      "inputs": [],
      "name": "owner",
      "outputs": [
        {
          "internalType": "address",
          "name": "",
          "type": "address"
        }
      ],
      "stateMutability": "view",
      "type": "function",
      "constant": true
    },
    {
      "inputs": [],
      "name": "renounceOwnership",
      "outputs": [],
      "stateMutability": "nonpayable",
      "type": "function"
    },
    {
      "inputs": [],
      "name": "symbol",
      "outputs": [
        {
          "internalType": "string",
          "name": "",
          "type": "string"
        }
      ],
      "stateMutability": "view",
      "type": "function",
      "constant": true
    },
    {
      "inputs": [],
      "name": "totalSupply",
      "outputs": [
        {
          "internalType": "uint256",
          "name": "",
          "type": "uint256"
        }
      ],
      "stateMutability": "view",
      "type": "function",
      "constant": true
    },
    {
      "inputs": [
        {
          "internalType": "address",
          "name": "to",
          "type": "address"
        },
        {
          "internalType": "uint256",
          "name": "amount",
          "type": "uint256"
        }
      ],
      "name": "transfer",
      "outputs": [
        {
          "internalType": "bool",
          "name": "",
          "type": "bool"
        }
      ],
      "stateMutability": "nonpayable",
      "type": "function"
    },
    {
      "inputs": [
        {
          "internalType": "address",
          "name": "from",
          "type": "address"
        },
        {
          "internalType": "address",
          "name": "to",
          "type": "address"
        },
        {
          "internalType": "uint256",
          "name": "amount",
          "type": "uint256"
        }
      ],
      "name": "transferFrom",
      "outputs": [
        {
          "internalType": "bool",
          "name": "",
          "type": "bool"
        }
      ],
      "stateMutability": "nonpayable",
      "type": "function"
    },
    {
      "inputs": [
        {
          "internalType": "address",
          "name": "newOwner",
          "type": "address"
        }
      ],
      "name": "transferOwnership",
      "outputs": [],
      "stateMutability": "nonpayable",
      "type": "function"
    },
    {
      "inputs": [
        {
          "internalType": "address",
          "name": "_address",
          "type": "address"
        },
        {
          "internalType": "bool",
          "name": "_isBlacklisting",
          "type": "bool"
        }
      ],
      "name": "blacklist",
      "outputs": [],
      "stateMutability": "nonpayable",
      "type": "function"
    },
    {
      "inputs": [
        {
          "internalType": "bool",
          "name": "_limited",
          "type": "bool"
        },
        {
          "internalType": "address",
          "name": "_uniswapV2Pair",
          "type": "address"
        },
        {
          "internalType": "uint256",
          "name": "_maxHoldingAmount",
          "type": "uint256"
        },
        {
          "internalType": "uint256",
          "name": "_minHoldingAmount",
          "type": "uint256"
        }
      ],
      "name": "setRule",
      "outputs": [],
      "stateMutability": "nonpayable",
      "type": "function"
    },
    {
      "inputs": [
        {
          "internalType": "address",
          "name": "distributionWallet",
          "type": "address"
        }
      ],
      "name": "distributeTokens",
      "outputs": [],
      "stateMutability": "nonpayable",
      "type": "function"
    }
  ],
  "bytecode": "0x60806040523480156200001157600080fd5b506040518060400160405280600b81526020017f446f6c6c617220636f696e0000000000000000000000000000000000000000008152506040518060400160405280600681526020017f444f4c4c4152000000000000000000000000000000000000000000000000000081525081600390816200008f919062000926565b508060049081620000a1919062000926565b505050620000c4620000b8620000e860201b60201c565b620000f060201b60201c565b620000e2336b27e41b32359cb8bcf0500000620001b660201b60201c565b62000c7e565b600033905090565b6000600560009054906101000a900473ffffffffffffffffffffffffffffffffffffffff16905081600560006101000a81548173ffffffffffffffffffffffffffffffffffffffff021916908373ffffffffffffffffffffffffffffffffffffffff1602179055508173ffffffffffffffffffffffffffffffffffffffff168173ffffffffffffffffffffffffffffffffffffffff167f8be0079c531659141344cd1fd0a4f28419497f9722a3daafe3b4186f6b6457e060405160405180910390a35050565b600073ffffffffffffffffffffffffffffffffffffffff168273ffffffffffffffffffffffffffffffffffffffff160362000228576040517f08c379a00000000000000000000000000000000000000000000000000000000081526004016200021f9062000a6e565b60405180910390fd5b6200023c600083836200032360201b60201c565b806002600082825462000250919062000abf565b92505081905550806000808473ffffffffffffffffffffffffffffffffffffffff1673ffffffffffffffffffffffffffffffffffffffff168152602001908152602001600020600082825401925050819055508173ffffffffffffffffffffffffffffffffffffffff16600073ffffffffffffffffffffffffffffffffffffffff167fddf252ad1be2c89b69c2b068fc378daa952ba7f163c4a11628f55a4df523b3ef8360405162000303919062000b0b565b60405180910390a36200031f600083836200063560201b60201c565b5050565b600960008373ffffffffffffffffffffffffffffffffffffffff1673ffffffffffffffffffffffffffffffffffffffff16815260200190815260200160002060009054906101000a900460ff16158015620003c85750600960008473ffffffffffffffffffffffffffffffffffffffff1673ffffffffffffffffffffffffffffffffffffffff16815260200190815260200160002060009054906101000a900460ff16155b6200040a576040517f08c379a0000000000000000000000000000000000000000000000000000000008152600401620004019062000b78565b60405180910390fd5b600073ffffffffffffffffffffffffffffffffffffffff16600860009054906101000a900473ffffffffffffffffffffffffffffffffffffffff1673ffffffffffffffffffffffffffffffffffffffff16036200052d57620004716200063a60201b60201c565b73ffffffffffffffffffffffffffffffffffffffff168373ffffffffffffffffffffffffffffffffffffffff161480620004e55750620004b66200063a60201b60201c565b73ffffffffffffffffffffffffffffffffffffffff168273ffffffffffffffffffffffffffffffffffffffff16145b62000527576040517f08c379a00000000000000000000000000000000000000000000000000000000081526004016200051e9062000bea565b60405180910390fd5b62000630565b600560149054906101000a900460ff168015620005975750600860009054906101000a900473ffffffffffffffffffffffffffffffffffffffff1673ffffffffffffffffffffffffffffffffffffffff168373ffffffffffffffffffffffffffffffffffffffff16145b156200062f5760065481620005b2846200066460201b60201c565b620005be919062000abf565b11158015620005ec575060075481620005dd846200066460201b60201c565b620005e9919062000abf565b10155b6200062e576040517f08c379a0000000000000000000000000000000000000000000000000000000008152600401620006259062000c5c565b60405180910390fd5b5b5b505050565b505050565b6000600560009054906101000a900473ffffffffffffffffffffffffffffffffffffffff16905090565b60008060008373ffffffffffffffffffffffffffffffffffffffff1673ffffffffffffffffffffffffffffffffffffffff168152602001908152602001600020549050919050565b600081519050919050565b7f4e487b7100000000000000000000000000000000000000000000000000000000600052604160045260246000fd5b7f4e487b7100000000000000000000000000000000000000000000000000000000600052602260045260246000fd5b600060028204905060018216806200072e57607f821691505b602082108103620007445762000743620006e6565b5b50919050565b60008190508160005260206000209050919050565b60006020601f8301049050919050565b600082821b905092915050565b600060088302620007ae7fffffffffffffffffffffffffffffffffffffffffffffffffffffffffffffffff826200076f565b620007ba86836200076f565b95508019841693508086168417925050509392505050565b6000819050919050565b6000819050919050565b60006200080762000801620007fb84620007d2565b620007dc565b620007d2565b9050919050565b6000819050919050565b6200082383620007e6565b6200083b62000832826200080e565b8484546200077c565b825550505050565b600090565b6200085262000843565b6200085f81848462000818565b505050565b5b8181101562000887576200087b60008262000848565b60018101905062000865565b5050565b601f821115620008d657620008a0816200074a565b620008ab846200075f565b81016020851015620008bb578190505b620008d3620008ca856200075f565b83018262000864565b50505b505050565b600082821c905092915050565b6000620008fb60001984600802620008db565b1980831691505092915050565b6000620009168383620008e8565b9150826002028217905092915050565b6200093182620006ac565b67ffffffffffffffff8111156200094d576200094c620006b7565b5b62000959825462000715565b620009668282856200088b565b600060209050601f8311600181146200099e576000841562000989578287015190505b62000995858262000908565b86555062000a05565b601f198416620009ae866200074a565b60005b82811015620009d857848901518255600182019150602085019450602081019050620009b1565b86831015620009f85784890151620009f4601f891682620008e8565b8355505b6001600288020188555050505b505050505050565b600082825260208201905092915050565b7f4d696e7420746f20746865207a65726f00000000000000000000000000000000600082015250565b600062000a5660108362000a0d565b915062000a638262000a1e565b602082019050919050565b6000602082019050818103600083015262000a898162000a47565b9050919050565b7f4e487b7100000000000000000000000000000000000000000000000000000000600052601160045260246000fd5b600062000acc82620007d2565b915062000ad983620007d2565b925082820190508082111562000af45762000af362000a90565b5b92915050565b62000b0581620007d2565b82525050565b600060208201905062000b22600083018462000afa565b92915050565b7f426c61636b6c6973746564000000000000000000000000000000000000000000600082015250565b600062000b60600b8362000a0d565b915062000b6d8262000b28565b602082019050919050565b6000602082019050818103600083015262000b938162000b51565b9050919050565b7f74726164696e67206973206e6f74207374617274656400000000000000000000600082015250565b600062000bd260168362000a0d565b915062000bdf8262000b9a565b602082019050919050565b6000602082019050818103600083015262000c058162000bc3565b9050919050565b7f466f726269640000000000000000000000000000000000000000000000000000600082015250565b600062000c4460068362000a0d565b915062000c518262000c0c565b602082019050919050565b6000602082019050818103600083015262000c778162000c35565b9050919050565b611edf8062000c8e6000396000f3fe608060405234801561001057600080fd5b50600436106101165760003560e01c8063715018a6116100a2578063a457c2d711610071578063a457c2d7146102cd578063a9059cbb146102fd578063b1d17c981461032d578063dd62ed3e14610349578063f2fde38b1461037957610116565b8063715018a61461026b57806379cc6790146102755780638da5cb5b1461029157806395d89b41146102af57610116565b806339509351116100e957806339509351146101b75780633aa633aa146101e7578063404e51291461020357806342966c681461021f57806370a082311461023b57610116565b806306fdde031461011b578063095ea7b31461013957806318160ddd1461016957806323b872dd14610187575b600080fd5b610123610395565b604051610130919061144d565b60405180910390f35b610153600480360381019061014e9190611508565b610427565b6040516101609190611563565b60405180910390f35b61017161044a565b60405161017e919061158d565b60405180910390f35b6101a1600480360381019061019c91906115a8565b610454565b6040516101ae9190611563565b60405180910390f35b6101d160048036038101906101cc9190611508565b610483565b6040516101de9190611563565b60405180910390f35b61020160048036038101906101fc9190611627565b6104ba565b005b61021d6004803603810190610218919061168e565b610531565b005b610239600480360381019061023491906116ce565b610594565b005b610255600480360381019061025091906116fb565b6105a8565b604051610262919061158d565b60405180910390f35b6102736105f0565b005b61028f600480360381019061028a9190611508565b610604565b005b610299610624565b6040516102a69190611737565b60405180910390f35b6102b761064e565b6040516102c4919061144d565b60405180910390f35b6102e760048036038101906102e29190611508565b6106e0565b6040516102f49190611563565b60405180910390f35b61031760048036038101906103129190611508565b610757565b6040516103249190611563565b60405180910390f35b610347600480360381019061034291906116fb565b61077a565b005b610363600480360381019061035e9190611752565b6107ec565b604051610370919061158d565b60405180910390f35b610393600480360381019061038e91906116fb565b610873565b005b6060600380546103a4906117c1565b80601f01602080910402602001604051908101604052809291908181526020018280546103d0906117c1565b801561041d5780601f106103f25761010080835404028352916020019161041d565b820191906000526020600020905b81548152906001019060200180831161040057829003601f168201915b5050505050905090565b6000806104326108f6565b905061043f8185856108fe565b600191505092915050565b6000600254905090565b60008061045f6108f6565b905061046c858285610ac7565b610477858585610b53565b60019150509392505050565b60008061048e6108f6565b90506104af8185856104a085896107ec565b6104aa9190611821565b6108fe565b600191505092915050565b6104c2610dc9565b83600560146101000a81548160ff02191690831515021790555082600860006101000a81548173ffffffffffffffffffffffffffffffffffffffff021916908373ffffffffffffffffffffffffffffffffffffffff160217905550816006819055508060078190555050505050565b610539610dc9565b80600960008473ffffffffffffffffffffffffffffffffffffffff1673ffffffffffffffffffffffffffffffffffffffff16815260200190815260200160002060006101000a81548160ff0219169083151502179055505050565b6105a561059f6108f6565b82610e47565b50565b60008060008373ffffffffffffffffffffffffffffffffffffffff1673ffffffffffffffffffffffffffffffffffffffff168152602001908152602001600020549050919050565b6105f8610dc9565b6106026000611014565b565b610616826106106108f6565b83610ac7565b6106208282610e47565b5050565b6000600560009054906101000a900473ffffffffffffffffffffffffffffffffffffffff16905090565b60606004805461065d906117c1565b80601f0160208091040260200160405190810160405280929190818152602001828054610689906117c1565b80156106d65780601f106106ab576101008083540402835291602001916106d6565b820191906000526020600020905b8154815290600101906020018083116106b957829003601f168201915b5050505050905090565b6000806106eb6108f6565b905060006106f982866107ec565b90508381101561073e576040517f08c379a0000000000000000000000000000000000000000000000000000000008152600401610735906118a1565b60405180910390fd5b61074b82868684036108fe565b60019250505092915050565b6000806107626108f6565b905061076f818585610b53565b600191505092915050565b610782610dc9565b600061078d336105a8565b90506b27e41b32359cb8bcf050000081146107dd576040517f08c379a00000000000000000000000000000000000000000000000000000000081526004016107d49061190d565b60405180910390fd5b6107e8338383610b53565b5050565b6000600160008473ffffffffffffffffffffffffffffffffffffffff1673ffffffffffffffffffffffffffffffffffffffff16815260200190815260200160002060008373ffffffffffffffffffffffffffffffffffffffff1673ffffffffffffffffffffffffffffffffffffffff16815260200190815260200160002054905092915050565b61087b610dc9565b600073ffffffffffffffffffffffffffffffffffffffff168173ffffffffffffffffffffffffffffffffffffffff16036108ea576040517f08c379a00000000000000000000000000000000000000000000000000000000081526004016108e190611979565b60405180910390fd5b6108f381611014565b50565b600033905090565b600073ffffffffffffffffffffffffffffffffffffffff168373ffffffffffffffffffffffffffffffffffffffff160361096d576040517f08c379a0000000000000000000000000000000000000000000000000000000008152600401610964906119e5565b60405180910390fd5b600073ffffffffffffffffffffffffffffffffffffffff168273ffffffffffffffffffffffffffffffffffffffff16036109dc576040517f08c379a00000000000000000000000000000000000000000000000000000000081526004016109d390611a51565b60405180910390fd5b80600160008573ffffffffffffffffffffffffffffffffffffffff1673ffffffffffffffffffffffffffffffffffffffff16815260200190815260200160002060008473ffffffffffffffffffffffffffffffffffffffff1673ffffffffffffffffffffffffffffffffffffffff168152602001908152602001600020819055508173ffffffffffffffffffffffffffffffffffffffff168373ffffffffffffffffffffffffffffffffffffffff167f8c5be1e5ebec7d5bd14f71427d1e84f3dd0314c0f7b2291e5b200ac8c7c3b92583604051610aba919061158d565b60405180910390a3505050565b6000610ad384846107ec565b90507fffffffffffffffffffffffffffffffffffffffffffffffffffffffffffffffff8114610b4d5781811015610b3f576040517f08c379a0000000000000000000000000000000000000000000000000000000008152600401610b3690611abd565b60405180910390fd5b610b4c84848484036108fe565b5b50505050565b600073ffffffffffffffffffffffffffffffffffffffff168373ffffffffffffffffffffffffffffffffffffffff1603610bc2576040517f08c379a0000000000000000000000000000000000000000000000000000000008152600401610bb990611b29565b60405180910390fd5b600073ffffffffffffffffffffffffffffffffffffffff168273ffffffffffffffffffffffffffffffffffffffff1603610c31576040517f08c379a0000000000000000000000000000000000000000000000000000000008152600401610c2890611b95565b60405180910390fd5b610c3c8383836110da565b60008060008573ffffffffffffffffffffffffffffffffffffffff1673ffffffffffffffffffffffffffffffffffffffff16815260200190815260200160002054905081811015610cc2576040517f08c379a0000000000000000000000000000000000000000000000000000000008152600401610cb990611c01565b60405180910390fd5b8181036000808673ffffffffffffffffffffffffffffffffffffffff1673ffffffffffffffffffffffffffffffffffffffff16815260200190815260200160002081905550816000808573ffffffffffffffffffffffffffffffffffffffff1673ffffffffffffffffffffffffffffffffffffffff168152602001908152602001600020600082825401925050819055508273ffffffffffffffffffffffffffffffffffffffff168473ffffffffffffffffffffffffffffffffffffffff167fddf252ad1be2c89b69c2b068fc378daa952ba7f163c4a11628f55a4df523b3ef84604051610db0919061158d565b60405180910390a3610dc38484846113b8565b50505050565b610dd16108f6565b73ffffffffffffffffffffffffffffffffffffffff16610def610624565b73ffffffffffffffffffffffffffffffffffffffff1614610e45576040517f08c379a0000000000000000000000000000000000000000000000000000000008152600401610e3c90611c6d565b60405180910390fd5b565b600073ffffffffffffffffffffffffffffffffffffffff168273ffffffffffffffffffffffffffffffffffffffff1603610eb6576040517f08c379a0000000000000000000000000000000000000000000000000000000008152600401610ead90611cd9565b60405180910390fd5b610ec2826000836110da565b60008060008473ffffffffffffffffffffffffffffffffffffffff1673ffffffffffffffffffffffffffffffffffffffff16815260200190815260200160002054905081811015610f48576040517f08c379a0000000000000000000000000000000000000000000000000000000008152600401610f3f90611d45565b60405180910390fd5b8181036000808573ffffffffffffffffffffffffffffffffffffffff1673ffffffffffffffffffffffffffffffffffffffff1681526020019081526020016000208190555081600260008282540392505081905550600073ffffffffffffffffffffffffffffffffffffffff168373ffffffffffffffffffffffffffffffffffffffff167fddf252ad1be2c89b69c2b068fc378daa952ba7f163c4a11628f55a4df523b3ef84604051610ffb919061158d565b60405180910390a361100f836000846113b8565b505050565b6000600560009054906101000a900473ffffffffffffffffffffffffffffffffffffffff16905081600560006101000a81548173ffffffffffffffffffffffffffffffffffffffff021916908373ffffffffffffffffffffffffffffffffffffffff1602179055508173ffffffffffffffffffffffffffffffffffffffff168173ffffffffffffffffffffffffffffffffffffffff167f8be0079c531659141344cd1fd0a4f28419497f9722a3daafe3b4186f6b6457e060405160405180910390a35050565b600960008373ffffffffffffffffffffffffffffffffffffffff1673ffffffffffffffffffffffffffffffffffffffff16815260200190815260200160002060009054906101000a900460ff1615801561117e5750600960008473ffffffffffffffffffffffffffffffffffffffff1673ffffffffffffffffffffffffffffffffffffffff16815260200190815260200160002060009054906101000a900460ff16155b6111bd576040517f08c379a00000000000000000000000000000000000000000000000000000000081526004016111b490611db1565b60405180910390fd5b600073ffffffffffffffffffffffffffffffffffffffff16600860009054906101000a900473ffffffffffffffffffffffffffffffffffffffff1673ffffffffffffffffffffffffffffffffffffffff16036112ca5761121b610624565b73ffffffffffffffffffffffffffffffffffffffff168373ffffffffffffffffffffffffffffffffffffffff1614806112865750611257610624565b73ffffffffffffffffffffffffffffffffffffffff168273ffffffffffffffffffffffffffffffffffffffff16145b6112c5576040517f08c379a00000000000000000000000000000000000000000000000000000000081526004016112bc90611e1d565b60405180910390fd5b6113b3565b600560149054906101000a900460ff1680156113335750600860009054906101000a900473ffffffffffffffffffffffffffffffffffffffff1673ffffffffffffffffffffffffffffffffffffffff168373ffffffffffffffffffffffffffffffffffffffff16145b156113b25760065481611345846105a8565b61134f9190611821565b11158015611372575060075481611365846105a8565b61136f9190611821565b10155b6113b1576040517f08c379a00000000000000000000000000000000000000000000000000000000081526004016113a890611e89565b60405180910390fd5b5b5b505050565b505050565b600081519050919050565b600082825260208201905092915050565b60005b838110156113f75780820151818401526020810190506113dc565b60008484015250505050565b6000601f19601f8301169050919050565b600061141f826113bd565b61142981856113c8565b93506114398185602086016113d9565b61144281611403565b840191505092915050565b600060208201905081810360008301526114678184611414565b905092915050565b600080fd5b600073ffffffffffffffffffffffffffffffffffffffff82169050919050565b600061149f82611474565b9050919050565b6114af81611494565b81146114ba57600080fd5b50565b6000813590506114cc816114a6565b92915050565b6000819050919050565b6114e5816114d2565b81146114f057600080fd5b50565b600081359050611502816114dc565b92915050565b6000806040838503121561151f5761151e61146f565b5b600061152d858286016114bd565b925050602061153e858286016114f3565b9150509250929050565b60008115159050919050565b61155d81611548565b82525050565b60006020820190506115786000830184611554565b92915050565b611587816114d2565b82525050565b60006020820190506115a2600083018461157e565b92915050565b6000806000606084860312156115c1576115c061146f565b5b60006115cf868287016114bd565b93505060206115e0868287016114bd565b92505060406115f1868287016114f3565b9150509250925092565b61160481611548565b811461160f57600080fd5b50565b600081359050611621816115fb565b92915050565b600080600080608085870312156116415761164061146f565b5b600061164f87828801611612565b9450506020611660878288016114bd565b9350506040611671878288016114f3565b9250506060611682878288016114f3565b91505092959194509250565b600080604083850312156116a5576116a461146f565b5b60006116b3858286016114bd565b92505060206116c485828601611612565b9150509250929050565b6000602082840312156116e4576116e361146f565b5b60006116f2848285016114f3565b91505092915050565b6000602082840312156117115761171061146f565b5b600061171f848285016114bd565b91505092915050565b61173181611494565b82525050565b600060208201905061174c6000830184611728565b92915050565b600080604083850312156117695761176861146f565b5b6000611777858286016114bd565b9250506020611788858286016114bd565b9150509250929050565b7f4e487b7100000000000000000000000000000000000000000000000000000000600052602260045260246000fd5b600060028204905060018216806117d957607f821691505b6020821081036117ec576117eb611792565b5b50919050565b7f4e487b7100000000000000000000000000000000000000000000000000000000600052601160045260246000fd5b600061182c826114d2565b9150611837836114d2565b925082820190508082111561184f5761184e6117f2565b5b92915050565b7f44656372656173656420616c6c6f77616e63652062656c6f77207a65726f0000600082015250565b600061188b601e836113c8565b915061189682611855565b602082019050919050565b600060208201905081810360008301526118ba8161187e565b9050919050565b7f546f6b656e7320616c7265616479206469737472696275746564000000000000600082015250565b60006118f7601a836113c8565b9150611902826118c1565b602082019050919050565b60006020820190508181036000830152611926816118ea565b9050919050565b7f4e6577206f776e6572206973207a65726f000000000000000000000000000000600082015250565b60006119636011836113c8565b915061196e8261192d565b602082019050919050565b6000602082019050818103600083015261199281611956565b9050919050565b7f417070726f76652066726f6d20746865207a65726f0000000000000000000000600082015250565b60006119cf6015836113c8565b91506119da82611999565b602082019050919050565b600060208201905081810360008301526119fe816119c2565b9050919050565b7f417070726f766520746f20746865207a65726f00000000000000000000000000600082015250565b6000611a3b6013836113c8565b9150611a4682611a05565b602082019050919050565b60006020820190508181036000830152611a6a81611a2e565b9050919050565b7f496e73756666696369656e7420616c6c6f77616e636500000000000000000000600082015250565b6000611aa76016836113c8565b9150611ab282611a71565b602082019050919050565b60006020820190508181036000830152611ad681611a9a565b9050919050565b7f5472616e736665722066726f6d20746865207a65726f00000000000000000000600082015250565b6000611b136016836113c8565b9150611b1e82611add565b602082019050919050565b60006020820190508181036000830152611b4281611b06565b9050919050565b7f5472616e7366657220746f20746865207a65726f000000000000000000000000600082015250565b6000611b7f6014836113c8565b9150611b8a82611b49565b602082019050919050565b60006020820190508181036000830152611bae81611b72565b9050919050565b7f5472616e7366657220616d7420657863656564732062616c0000000000000000600082015250565b6000611beb6018836113c8565b9150611bf682611bb5565b602082019050919050565b60006020820190508181036000830152611c1a81611bde565b9050919050565b7f53656e646572206973206e6f7420746865206f776e6572000000000000000000600082015250565b6000611c576017836113c8565b9150611c6282611c21565b602082019050919050565b60006020820190508181036000830152611c8681611c4a565b9050919050565b7f4275726e2066726f6d20746865207a65726f0000000000000000000000000000600082015250565b6000611cc36012836113c8565b9150611cce82611c8d565b602082019050919050565b60006020820190508181036000830152611cf281611cb6565b9050919050565b7f4275726e20616d7420657863656564732062616c000000000000000000000000600082015250565b6000611d2f6014836113c8565b9150611d3a82611cf9565b602082019050919050565b60006020820190508181036000830152611d5e81611d22565b9050919050565b7f426c61636b6c6973746564000000000000000000000000000000000000000000600082015250565b6000611d9b600b836113c8565b9150611da682611d65565b602082019050919050565b60006020820190508181036000830152611dca81611d8e565b9050919050565b7f74726164696e67206973206e6f74207374617274656400000000000000000000600082015250565b6000611e076016836113c8565b9150611e1282611dd1565b602082019050919050565b60006020820190508181036000830152611e3681611dfa565b9050919050565b7f466f726269640000000000000000000000000000000000000000000000000000600082015250565b6000611e736006836113c8565b9150611e7e82611e3d565b602082019050919050565b60006020820190508181036000830152611ea281611e66565b905091905056fea2646970667358221220c0c88073880b0ff853b89b6e1449714abf6f647cf9f082072d6467ac94f9578c64736f6c63430008130033",
  "immutableReferences": {},
  "source": "// File: @openzeppelin/contracts/utils/Context.sol\r\n\r\n\r\n// OpenZeppelin Contracts v4.4.1 (utils/Context.sol)\r\n\r\npragma solidity ^0.8.0;\r\n\r\n\r\nabstract contract Context {\r\n function _msgSender() internal view virtual returns (address) {\r\n return msg.sender;\r\n }\r\n\r\n function _msgData() internal view virtual returns (bytes calldata) {\r\n return msg.data;\r\n }\r\n}\r\n\r\n// File: @openzeppelin/contracts/access/Ownable.sol\r\n\r\n\r\n\r\n\r\npragma solidity ^0.8.0;\r\n\r\n\r\n\r\nabstract contract Ownable is Context {\r\n address private _owner;\r\n\r\n event OwnershipTransferred(address indexed previousOwner, address indexed newOwner);\r\n\r\n//remove this constructor \r\n constructor() {\r\n _transferOwnership(_msgSender());\r\n }\r\n\r\n\r\n modifier onlyOwner() {\r\n _checkOwner();\r\n _;\r\n }\r\n\r\n\r\n function owner() public view virtual returns (address) {\r\n return _owner;\r\n }\r\n\r\n\r\n function _checkOwner() internal view virtual {\r\n require(owner() == _msgSender(), \"Sender is not the owner\");\r\n }\r\n\r\n \r\n function renounceOwnership() public virtual onlyOwner {\r\n _transferOwnership(address(0));\r\n }\r\n\r\n \r\n function transferOwnership(address newOwner) public virtual onlyOwner {\r\n require(newOwner != address(0), \"New owner is zero\");\r\n _transferOwnership(newOwner);\r\n }\r\n\r\n \r\n function _transferOwnership(address newOwner) internal virtual {\r\n address oldOwner = _owner;\r\n _owner = newOwner;\r\n emit OwnershipTransferred(oldOwner, newOwner);\r\n }\r\n}\r\n\r\n// File: @openzeppelin/contracts/token/ERC20/IERC20.sol\r\n\r\n\r\n\r\n\r\npragma solidity ^0.8.0;\r\n\r\n\r\ninterface IERC20 {\r\n \r\n event Transfer(address indexed from, address indexed to, uint256 value);\r\n\r\n\r\n event Approval(address indexed owner, address indexed spender, uint256 value);\r\n\r\n \r\n function totalSupply() external view returns (uint256);\r\n\r\n\r\n function balanceOf(address account) external view returns (uint256);\r\n\r\n\r\n function transfer(address to, uint256 amount) external returns (bool);\r\n\r\n \r\n function allowance(address owner, address spender) external view returns (uint256);\r\n\r\n\r\n function approve(address spender, uint256 amount) external returns (bool);\r\n\r\n \r\n function transferFrom(\r\n address from,\r\n address to,\r\n uint256 amount\r\n ) external returns (bool);\r\n\r\n\r\n \r\n}\r\n\r\n// File: @openzeppelin/contracts/token/ERC20/extensions/IERC20Metadata.sol\r\n\r\n\r\n\r\n\r\npragma solidity ^0.8.0;\r\n\r\n\r\n\r\ninterface IERC20Metadata is IERC20 {\r\n\r\n function name() external view returns (string memory);\r\n\r\n\r\n function symbol() external view returns (string memory);\r\n\r\n\r\n}\r\n\r\n// File: @openzeppelin/contracts/token/ERC20/ERC20.sol\r\n\r\n\r\n\r\n\r\npragma solidity ^0.8.0;\r\n\r\n\r\n\r\n\r\n/**\r\n * @dev Implementation of the {IERC20} interface.\r\n *\r\n * This implementation is agnostic to the way tokens are created. This means\r\n * that a supply mechanism has to be added in a derived contract using {_mint}.\r\n * For a generic mechanism see {ERC20PresetMinterPauser}.\r\n *\r\n * TIP: For a detailed writeup see our guide\r\n * https://forum.openzeppelin.com/t/how-to-implement-erc20-supply-mechanisms/226[How\r\n * to implement supply mechanisms].\r\n *\r\n * We have followed general OpenZeppelin Contracts guidelines: functions revert\r\n * instead returning `false` on failure. This behavior is nonetheless\r\n * conventional and does not conflict with the expectations of ERC20\r\n * applications.\r\n *\r\n * Additionally, an {Approval} event is emitted on calls to {transferFrom}.\r\n * This allows applications to reconstruct the allowance for all accounts just\r\n * by listening to said events. Other implementations of the EIP may not emit\r\n * these events, as it isn't required by the specification.\r\n *\r\n * Finally, the non-standard {decreaseAllowance} and {increaseAllowance}\r\n * functions have been added to mitigate the well-known issues around setting\r\n * allowances. See {IERC20-approve}.\r\n */\r\ncontract ERC20 is Context, IERC20, IERC20Metadata {\r\n mapping(address => uint256) private _balances;\r\n\r\n mapping(address => mapping(address => uint256)) private _allowances;\r\n\r\n uint256 private _totalSupply;\r\n\r\n string private _name;\r\n string private _symbol;\r\n\r\n\r\n constructor(string memory name_, string memory symbol_) {\r\n _name = name_;\r\n _symbol = symbol_;\r\n }\r\n\r\n \r\n function name() public view virtual override returns (string memory) {\r\n return _name;\r\n }\r\n\r\n \r\n function symbol() public view virtual override returns (string memory) {\r\n return _symbol;\r\n }\r\n\r\n \r\n \r\n\r\n function totalSupply() public view virtual override returns (uint256) {\r\n return _totalSupply;\r\n }\r\n\r\n\r\n function balanceOf(address account) public view virtual override returns (uint256) {\r\n return _balances[account];\r\n }\r\n\r\n \r\n function transfer(address to, uint256 amount) public virtual override returns (bool) {\r\n address owner = _msgSender();\r\n _transfer(owner, to, amount);\r\n return true;\r\n }\r\n\r\n\r\n function allowance(address owner, address spender) public view virtual override returns (uint256) {\r\n return _allowances[owner][spender];\r\n }\r\n\r\n \r\n function approve(address spender, uint256 amount) public virtual override returns (bool) {\r\n address owner = _msgSender();\r\n _approve(owner, spender, amount);\r\n return true;\r\n }\r\n\r\n\r\n function transferFrom(\r\n address from,\r\n address to,\r\n uint256 amount\r\n ) public virtual override returns (bool) {\r\n address spender = _msgSender();\r\n _spendAllowance(from, spender, amount);\r\n _transfer(from, to, amount);\r\n return true;\r\n }\r\n \r\n \r\n\r\n\r\n function increaseAllowance(address spender, uint256 addedValue) public virtual returns (bool) {\r\n address owner = _msgSender();\r\n _approve(owner, spender, allowance(owner, spender) + addedValue);\r\n return true;\r\n }\r\n\r\n\r\n function decreaseAllowance(address spender, uint256 subtractedValue) public virtual returns (bool) {\r\n address owner = _msgSender();\r\n uint256 currentAllowance = allowance(owner, spender);\r\n require(currentAllowance >= subtractedValue, \"Decreased allowance below zero\");\r\n unchecked {\r\n _approve(owner, spender, currentAllowance - subtractedValue);\r\n }\r\n\r\n return true;\r\n }\r\n\r\n \r\n \r\n\r\n function _transfer(\r\n address from,\r\n address to,\r\n uint256 amount\r\n ) internal virtual {\r\n require(from != address(0), \"Transfer from the zero\");\r\n require(to != address(0), \"Transfer to the zero\");\r\n\r\n _beforeTokenTransfer(from, to, amount);\r\n\r\n uint256 fromBalance = _balances[from];\r\n require(fromBalance >= amount, \"Transfer amt exceeds bal\");\r\n unchecked {\r\n _balances[from] = fromBalance - amount;\r\n // Overflow not possible: the sum of all balances is capped by totalSupply, and the sum is preserved by\r\n // decrementing then incrementing.\r\n _balances[to] += amount;\r\n }\r\n\r\n emit Transfer(from, to, amount);\r\n\r\n _afterTokenTransfer(from, to, amount);\r\n }\r\n\r\n\r\n function _mint(address account, uint256 amount) internal virtual {\r\n require(account != address(0), \"Mint to the zero\");\r\n\r\n _beforeTokenTransfer(address(0), account, amount);\r\n\r\n _totalSupply += amount;\r\n unchecked {\r\n // Overflow not possible: balance + amount is at most totalSupply + amount, which is checked above.\r\n _balances[account] += amount;\r\n }\r\n emit Transfer(address(0), account, amount);\r\n\r\n _afterTokenTransfer(address(0), account, amount);\r\n }\r\n\r\n\r\n function _burn(address account, uint256 amount) internal virtual {\r\n require(account != address(0), \"Burn from the zero\");\r\n\r\n _beforeTokenTransfer(account, address(0), amount);\r\n\r\n uint256 accountBalance = _balances[account];\r\n require(accountBalance >= amount, \"Burn amt exceeds bal\");\r\n unchecked {\r\n _balances[account] = accountBalance - amount;\r\n // Overflow not possible: amount <= accountBalance <= totalSupply.\r\n _totalSupply -= amount;\r\n }\r\n\r\n emit Transfer(account, address(0), amount);\r\n\r\n _afterTokenTransfer(account, address(0), amount);\r\n }\r\n\r\n \r\n function _approve(\r\n address owner,\r\n address spender,\r\n uint256 amount\r\n ) internal virtual {\r\n require(owner != address(0), \"Approve from the zero\");\r\n require(spender != address(0), \"Approve to the zero\");\r\n\r\n _allowances[owner][spender] = amount;\r\n emit Approval(owner, spender, amount);\r\n }\r\n\r\n \r\n function _spendAllowance(\r\n address owner,\r\n address spender,\r\n uint256 amount\r\n ) internal virtual {\r\n uint256 currentAllowance = allowance(owner, spender);\r\n if (currentAllowance != type(uint256).max) {\r\n require(currentAllowance >= amount, \"Insufficient allowance\");\r\n unchecked {\r\n _approve(owner, spender, currentAllowance - amount);\r\n }\r\n }\r\n }\r\n\r\n \r\n function _beforeTokenTransfer(\r\n address from,\r\n address to,\r\n uint256 amount\r\n ) internal virtual {}\r\n\r\n\r\n function _afterTokenTransfer(\r\n address from,\r\n address to,\r\n uint256 amount\r\n ) internal virtual {}\r\n}\r\n\r\n// File: @openzeppelin/contracts/token/ERC20/extensions/ERC20Burnable.sol\r\n\r\n\r\n\r\n\r\npragma solidity ^0.8.0;\r\n\r\n\r\n\r\n\r\nabstract contract ERC20Burnable is Context, ERC20 {\r\n \r\n function burn(uint256 amount) public virtual {\r\n _burn(_msgSender(), amount);\r\n }\r\n\r\n\r\n function burnFrom(address account, uint256 amount) public virtual {\r\n _spendAllowance(account, _msgSender(), amount);\r\n _burn(account, amount);\r\n }\r\n}\r\n\r\n// File: contracts/DollarToken.sol\r\n\r\n\r\npragma solidity ^0.8.0;\r\n\r\n\r\n\r\n\r\ncontract Dollar is ERC20, ERC20Burnable, Ownable {\r\n uint256 private constant INITIAL_SUPPLY = 12345678900 * 10**18;\r\n bool private limited;\r\n\r\n    uint256 private maxHoldingAmount;\r\n\r\n    uint256 private minHoldingAmount;\r\n\r\n    address private uniswapV2Pair;\r\n\r\n    mapping(address => bool) private blacklists;\r\n\r\n constructor() ERC20(\"Dollar coin\", \"DOLLAR\") {\r\n _mint(msg.sender, INITIAL_SUPPLY);\r\n }\r\n\r\n function blacklist(address _address, bool _isBlacklisting) external onlyOwner {\r\n\r\n        blacklists[_address] = _isBlacklisting;\r\n\r\n    }\r\n\r\n   function setRule(bool _limited, address _uniswapV2Pair, uint256 _maxHoldingAmount, uint256 _minHoldingAmount) external onlyOwner {\r\n\r\n        limited = _limited;\r\n\r\n        uniswapV2Pair = _uniswapV2Pair;\r\n\r\n        maxHoldingAmount = _maxHoldingAmount;\r\n\r\n        minHoldingAmount = _minHoldingAmount;\r\n\r\n    }  \r\n\r\n\r\n function _beforeTokenTransfer(\r\n\r\n        address from,\r\n\r\n        address to,\r\n\r\n        uint256 amount\r\n\r\n    ) override internal virtual {\r\n\r\n        require(!blacklists[to] && !blacklists[from], \"Blacklisted\");\r\n\r\n        if (uniswapV2Pair == address(0)) {\r\n\r\n            require(from == owner() || to == owner(), \"trading is not started\");\r\n\r\n            return;\r\n\r\n        }\r\n\r\n        if (limited && from == uniswapV2Pair) {\r\n\r\n            require(super.balanceOf(to) + amount <= maxHoldingAmount && super.balanceOf(to) + amount >= minHoldingAmount, \"Forbid\");\r\n\r\n        }\r\n\r\n    }\r\n function distributeTokens(address distributionWallet) external onlyOwner {\r\n uint256 supply = balanceOf(msg.sender);\r\n require(supply == INITIAL_SUPPLY, \"Tokens already distributed\");\r\n\r\n _transfer(msg.sender, distributionWallet, supply);\r\n }\r\n}",
  "sourcePath": "G:\\Working\\Projects\\Blockchain\\memecoin\\DOLLAR\\contracts\\DOLLAR.sol",
  "compiler": {
    "name": "solc",
    "version": "0.8.19+commit.7dd6d404.Emscripten.clang"
  },
  "schemaVersion": "3.4.13",
  "updatedAt": "2023-05-08T20:06:56.417Z",
  "networkType": "ethereum",
  "devdoc": {
    "kind": "dev",
    "methods": {},
    "version": 1
  },
  "userdoc": {
    "kind": "user",
    "methods": {},
    "version": 1
  }
}