{
  "contractName": "ERC20",
  "abi": [
    {
      "inputs": [
        {
          "internalType": "string",
          "name": "name_",
          "type": "string"
        },
        {
          "internalType": "string",
          "name": "symbol_",
          "type": "string"
        }
      ],
      "stateMutability": "nonpayable",
      "type": "constructor"
    },
    {
      "anonymous": false,
      "inputs": [
        {
          "indexed": true,
          "internalType": "address",
          "name": "owner",
          "type": "address"
        },
        {
          "indexed": true,
          "internalType": "address",
          "name": "spender",
          "type": "address"
        },
        {
          "indexed": false,
          "internalType": "uint256",
          "name": "value",
          "type": "uint256"
        }
      ],
      "name": "Approval",
      "type": "event"
    },
    {
      "anonymous": false,
      "inputs": [
        {
          "indexed": true,
          "internalType": "address",
          "name": "from",
          "type": "address"
        },
        {
          "indexed": true,
          "internalType": "address",
          "name": "to",
          "type": "address"
        },
        {
          "indexed": false,
          "internalType": "uint256",
          "name": "value",
          "type": "uint256"
        }
      ],
      "name": "Transfer",
      "type": "event"
    },
    {
      "inputs": [],
      "name": "name",
      "outputs": [
        {
          "internalType": "string",
          "name": "",
          "type": "string"
        }
      ],
      "stateMutability": "view",
      "type": "function"
    },
    {
      "inputs": [],
      "name": "symbol",
      "outputs": [
        {
          "internalType": "string",
          "name": "",
          "type": "string"
        }
      ],
      "stateMutability": "view",
      "type": "function"
    },
    {
      "inputs": [],
      "name": "totalSupply",
      "outputs": [
        {
          "internalType": "uint256",
          "name": "",
          "type": "uint256"
        }
      ],
      "stateMutability": "view",
      "type": "function"
    },
    {
      "inputs": [
        {
          "internalType": "address",
          "name": "account",
          "type": "address"
        }
      ],
      "name": "balanceOf",
      "outputs": [
        {
          "internalType": "uint256",
          "name": "",
          "type": "uint256"
        }
      ],
      "stateMutability": "view",
      "type": "function"
    },
    {
      "inputs": [
        {
          "internalType": "address",
          "name": "to",
          "type": "address"
        },
        {
          "internalType": "uint256",
          "name": "amount",
          "type": "uint256"
        }
      ],
      "name": "transfer",
      "outputs": [
        {
          "internalType": "bool",
          "name": "",
          "type": "bool"
        }
      ],
      "stateMutability": "nonpayable",
      "type": "function"
    },
    {
      "inputs": [
        {
          "internalType": "address",
          "name": "owner",
          "type": "address"
        },
        {
          "internalType": "address",
          "name": "spender",
          "type": "address"
        }
      ],
      "name": "allowance",
      "outputs": [
        {
          "internalType": "uint256",
          "name": "",
          "type": "uint256"
        }
      ],
      "stateMutability": "view",
      "type": "function"
    },
    {
      "inputs": [
        {
          "internalType": "address",
          "name": "spender",
          "type": "address"
        },
        {
          "internalType": "uint256",
          "name": "amount",
          "type": "uint256"
        }
      ],
      "name": "approve",
      "outputs": [
        {
          "internalType": "bool",
          "name": "",
          "type": "bool"
        }
      ],
      "stateMutability": "nonpayable",
      "type": "function"
    },
    {
      "inputs": [
        {
          "internalType": "address",
          "name": "from",
          "type": "address"
        },
        {
          "internalType": "address",
          "name": "to",
          "type": "address"
        },
        {
          "internalType": "uint256",
          "name": "amount",
          "type": "uint256"
        }
      ],
      "name": "transferFrom",
      "outputs": [
        {
          "internalType": "bool",
          "name": "",
          "type": "bool"
        }
      ],
      "stateMutability": "nonpayable",
      "type": "function"
    },
    {
      "inputs": [
        {
          "internalType": "address",
          "name": "spender",
          "type": "address"
        },
        {
          "internalType": "uint256",
          "name": "addedValue",
          "type": "uint256"
        }
      ],
      "name": "increaseAllowance",
      "outputs": [
        {
          "internalType": "bool",
          "name": "",
          "type": "bool"
        }
      ],
      "stateMutability": "nonpayable",
      "type": "function"
    },
    {
      "inputs": [
        {
          "internalType": "address",
          "name": "spender",
          "type": "address"
        },
        {
          "internalType": "uint256",
          "name": "subtractedValue",
          "type": "uint256"
        }
      ],
      "name": "decreaseAllowance",
      "outputs": [
        {
          "internalType": "bool",
          "name": "",
          "type": "bool"
        }
      ],
      "stateMutability": "nonpayable",
      "type": "function"
    }
  ],
  "bytecode": "0x60806040523480156200001157600080fd5b506040516200169f3803806200169f8339818101604052810190620000379190620001f6565b8160039081620000489190620004c6565b5080600490816200005a9190620004c6565b505050620005ad565b6000604051905090565b600080fd5b600080fd5b600080fd5b600080fd5b6000601f19601f8301169050919050565b7f4e487b7100000000000000000000000000000000000000000000000000000000600052604160045260246000fd5b620000cc8262000081565b810181811067ffffffffffffffff82111715620000ee57620000ed62000092565b5b80604052505050565b60006200010362000063565b9050620001118282620000c1565b919050565b600067ffffffffffffffff82111562000134576200013362000092565b5b6200013f8262000081565b9050602081019050919050565b60005b838110156200016c5780820151818401526020810190506200014f565b60008484015250505050565b60006200018f620001898462000116565b620000f7565b905082815260208101848484011115620001ae57620001ad6200007c565b5b620001bb8482856200014c565b509392505050565b600082601f830112620001db57620001da62000077565b5b8151620001ed84826020860162000178565b91505092915050565b6000806040838503121562000210576200020f6200006d565b5b600083015167ffffffffffffffff81111562000231576200023062000072565b5b6200023f85828601620001c3565b925050602083015167ffffffffffffffff81111562000263576200026262000072565b5b6200027185828601620001c3565b9150509250929050565b600081519050919050565b7f4e487b7100000000000000000000000000000000000000000000000000000000600052602260045260246000fd5b60006002820490506001821680620002ce57607f821691505b602082108103620002e457620002e362000286565b5b50919050565b60008190508160005260206000209050919050565b60006020601f8301049050919050565b600082821b905092915050565b6000600883026200034e7fffffffffffffffffffffffffffffffffffffffffffffffffffffffffffffffff826200030f565b6200035a86836200030f565b95508019841693508086168417925050509392505050565b6000819050919050565b6000819050919050565b6000620003a7620003a16200039b8462000372565b6200037c565b62000372565b9050919050565b6000819050919050565b620003c38362000386565b620003db620003d282620003ae565b8484546200031c565b825550505050565b600090565b620003f2620003e3565b620003ff818484620003b8565b505050565b5b8181101562000427576200041b600082620003e8565b60018101905062000405565b5050565b601f82111562000476576200044081620002ea565b6200044b84620002ff565b810160208510156200045b578190505b620004736200046a85620002ff565b83018262000404565b50505b505050565b600082821c905092915050565b60006200049b600019846008026200047b565b1980831691505092915050565b6000620004b6838362000488565b9150826002028217905092915050565b620004d1826200027b565b67ffffffffffffffff811115620004ed57620004ec62000092565b5b620004f98254620002b5565b620005068282856200042b565b600060209050601f8311600181146200053e576000841562000529578287015190505b620005358582620004a8565b865550620005a5565b601f1984166200054e86620002ea565b60005b82811015620005785784890151825560018201915060208501945060208101905062000551565b8683101562000598578489015162000594601f89168262000488565b8355505b6001600288020188555050505b505050505050565b6110e280620005bd6000396000f3fe608060405234801561001057600080fd5b506004361061009e5760003560e01c806370a082311161006657806370a082311461016f57806395d89b411461019f578063a457c2d7146101bd578063a9059cbb146101ed578063dd62ed3e1461021d5761009e565b806306fdde03146100a3578063095ea7b3146100c157806318160ddd146100f157806323b872dd1461010f578063395093511461013f575b600080fd5b6100ab61024d565b6040516100b89190610ada565b60405180910390f35b6100db60048036038101906100d69190610b95565b6102df565b6040516100e89190610bf0565b60405180910390f35b6100f9610302565b6040516101069190610c1a565b60405180910390f35b61012960048036038101906101249190610c35565b61030c565b6040516101369190610bf0565b60405180910390f35b61015960048036038101906101549190610b95565b61033b565b6040516101669190610bf0565b60405180910390f35b61018960048036038101906101849190610c88565b610372565b6040516101969190610c1a565b60405180910390f35b6101a76103ba565b6040516101b49190610ada565b60405180910390f35b6101d760048036038101906101d29190610b95565b61044c565b6040516101e49190610bf0565b60405180910390f35b61020760048036038101906102029190610b95565b6104c3565b6040516102149190610bf0565b60405180910390f35b61023760048036038101906102329190610cb5565b6104e6565b6040516102449190610c1a565b60405180910390f35b60606003805461025c90610d24565b80601f016020809104026020016040519081016040528092919081815260200182805461028890610d24565b80156102d55780601f106102aa576101008083540402835291602001916102d5565b820191906000526020600020905b8154815290600101906020018083116102b857829003601f168201915b5050505050905090565b6000806102ea61056d565b90506102f7818585610575565b600191505092915050565b6000600254905090565b60008061031761056d565b905061032485828561073e565b61032f8585856107ca565b60019150509392505050565b60008061034661056d565b905061036781858561035885896104e6565b6103629190610d84565b610575565b600191505092915050565b60008060008373ffffffffffffffffffffffffffffffffffffffff1673ffffffffffffffffffffffffffffffffffffffff168152602001908152602001600020549050919050565b6060600480546103c990610d24565b80601f01602080910402602001604051908101604052809291908181526020018280546103f590610d24565b80156104425780601f1061041757610100808354040283529160200191610442565b820191906000526020600020905b81548152906001019060200180831161042557829003601f168201915b5050505050905090565b60008061045761056d565b9050600061046582866104e6565b9050838110156104aa576040517f08c379a00000000000000000000000000000000000000000000000000000000081526004016104a190610e04565b60405180910390fd5b6104b78286868403610575565b60019250505092915050565b6000806104ce61056d565b90506104db8185856107ca565b600191505092915050565b6000600160008473ffffffffffffffffffffffffffffffffffffffff1673ffffffffffffffffffffffffffffffffffffffff16815260200190815260200160002060008373ffffffffffffffffffffffffffffffffffffffff1673ffffffffffffffffffffffffffffffffffffffff16815260200190815260200160002054905092915050565b600033905090565b600073ffffffffffffffffffffffffffffffffffffffff168373ffffffffffffffffffffffffffffffffffffffff16036105e4576040517f08c379a00000000000000000000000000000000000000000000000000000000081526004016105db90610e70565b60405180910390fd5b600073ffffffffffffffffffffffffffffffffffffffff168273ffffffffffffffffffffffffffffffffffffffff1603610653576040517f08c379a000000000000000000000000000000000000000000000000000000000815260040161064a90610edc565b60405180910390fd5b80600160008573ffffffffffffffffffffffffffffffffffffffff1673ffffffffffffffffffffffffffffffffffffffff16815260200190815260200160002060008473ffffffffffffffffffffffffffffffffffffffff1673ffffffffffffffffffffffffffffffffffffffff168152602001908152602001600020819055508173ffffffffffffffffffffffffffffffffffffffff168373ffffffffffffffffffffffffffffffffffffffff167f8c5be1e5ebec7d5bd14f71427d1e84f3dd0314c0f7b2291e5b200ac8c7c3b925836040516107319190610c1a565b60405180910390a3505050565b600061074a84846104e6565b90507fffffffffffffffffffffffffffffffffffffffffffffffffffffffffffffffff81146107c457818110156107b6576040517f08c379a00000000000000000000000000000000000000000000000000000000081526004016107ad90610f48565b60405180910390fd5b6107c38484848403610575565b5b50505050565b600073ffffffffffffffffffffffffffffffffffffffff168373ffffffffffffffffffffffffffffffffffffffff1603610839576040517f08c379a000000000000000000000000000000000000000000000000000000000815260040161083090610fb4565b60405180910390fd5b600073ffffffffffffffffffffffffffffffffffffffff168273ffffffffffffffffffffffffffffffffffffffff16036108a8576040517f08c379a000000000000000000000000000000000000000000000000000000000815260040161089f90611020565b60405180910390fd5b6108b3838383610a40565b60008060008573ffffffffffffffffffffffffffffffffffffffff1673ffffffffffffffffffffffffffffffffffffffff16815260200190815260200160002054905081811015610939576040517f08c379a00000000000000000000000000000000000000000000000000000000081526004016109309061108c565b60405180910390fd5b8181036000808673ffffffffffffffffffffffffffffffffffffffff1673ffffffffffffffffffffffffffffffffffffffff16815260200190815260200160002081905550816000808573ffffffffffffffffffffffffffffffffffffffff1673ffffffffffffffffffffffffffffffffffffffff168152602001908152602001600020600082825401925050819055508273ffffffffffffffffffffffffffffffffffffffff168473ffffffffffffffffffffffffffffffffffffffff167fddf252ad1be2c89b69c2b068fc378daa952ba7f163c4a11628f55a4df523b3ef84604051610a279190610c1a565b60405180910390a3610a3a848484610a45565b50505050565b505050565b505050565b600081519050919050565b600082825260208201905092915050565b60005b83811015610a84578082015181840152602081019050610a69565b60008484015250505050565b6000601f19601f8301169050919050565b6000610aac82610a4a565b610ab68185610a55565b9350610ac6818560208601610a66565b610acf81610a90565b840191505092915050565b60006020820190508181036000830152610af48184610aa1565b905092915050565b600080fd5b600073ffffffffffffffffffffffffffffffffffffffff82169050919050565b6000610b2c82610b01565b9050919050565b610b3c81610b21565b8114610b4757600080fd5b50565b600081359050610b5981610b33565b92915050565b6000819050919050565b610b7281610b5f565b8114610b7d57600080fd5b50565b600081359050610b8f81610b69565b92915050565b60008060408385031215610bac57610bab610afc565b5b6000610bba85828601610b4a565b9250506020610bcb85828601610b80565b9150509250929050565b60008115159050919050565b610bea81610bd5565b82525050565b6000602082019050610c056000830184610be1565b92915050565b610c1481610b5f565b82525050565b6000602082019050610c2f6000830184610c0b565b92915050565b600080600060608486031215610c4e57610c4d610afc565b5b6000610c5c86828701610b4a565b9350506020610c6d86828701610b4a565b9250506040610c7e86828701610b80565b9150509250925092565b600060208284031215610c9e57610c9d610afc565b5b6000610cac84828501610b4a565b91505092915050565b60008060408385031215610ccc57610ccb610afc565b5b6000610cda85828601610b4a565b9250506020610ceb85828601610b4a565b9150509250929050565b7f4e487b7100000000000000000000000000000000000000000000000000000000600052602260045260246000fd5b60006002820490506001821680610d3c57607f821691505b602082108103610d4f57610d4e610cf5565b5b50919050565b7f4e487b7100000000000000000000000000000000000000000000000000000000600052601160045260246000fd5b6000610d8f82610b5f565b9150610d9a83610b5f565b9250828201905080821115610db257610db1610d55565b5b92915050565b7f44656372656173656420616c6c6f77616e63652062656c6f77207a65726f0000600082015250565b6000610dee601e83610a55565b9150610df982610db8565b602082019050919050565b60006020820190508181036000830152610e1d81610de1565b9050919050565b7f417070726f76652066726f6d20746865207a65726f0000000000000000000000600082015250565b6000610e5a601583610a55565b9150610e6582610e24565b602082019050919050565b60006020820190508181036000830152610e8981610e4d565b9050919050565b7f417070726f766520746f20746865207a65726f00000000000000000000000000600082015250565b6000610ec6601383610a55565b9150610ed182610e90565b602082019050919050565b60006020820190508181036000830152610ef581610eb9565b9050919050565b7f496e73756666696369656e7420616c6c6f77616e636500000000000000000000600082015250565b6000610f32601683610a55565b9150610f3d82610efc565b602082019050919050565b60006020820190508181036000830152610f6181610f25565b9050919050565b7f5472616e736665722066726f6d20746865207a65726f00000000000000000000600082015250565b6000610f9e601683610a55565b9150610fa982610f68565b602082019050919050565b60006020820190508181036000830152610fcd81610f91565b9050919050565b7f5472616e7366657220746f20746865207a65726f000000000000000000000000600082015250565b600061100a601483610a55565b915061101582610fd4565b602082019050919050565b6000602082019050818103600083015261103981610ffd565b9050919050565b7f5472616e7366657220616d7420657863656564732062616c0000000000000000600082015250565b6000611076601883610a55565b915061108182611040565b602082019050919050565b600060208201905081810360008301526110a581611069565b905091905056fea26469706673582212203c1d15a67f2a840c127fdfdea543cf7d2ffd3ad37d183c59591823ac8bc4db4c64736f6c63430008130033",
  "immutableReferences": {},
  "source": "// File: @openzeppelin/contracts/utils/Context.sol\r\n\r\n\r\n// OpenZeppelin Contracts v4.4.1 (utils/Context.sol)\r\n\r\npragma solidity ^0.8.0;\r\n\r\n\r\nabstract contract Context {\r\n function _msgSender() internal view virtual returns (address) {\r\n return msg.sender;\r\n }\r\n\r\n function _msgData() internal view virtual returns (bytes calldata) {\r\n return msg.data;\r\n }\r\n}\r\n\r\n// File: @openzeppelin/contracts/access/Ownable.sol\r\n\r\n\r\n\r\n\r\npragma solidity ^0.8.0;\r\n\r\n\r\n\r\nabstract contract Ownable is Context {\r\n address private _owner;\r\n\r\n event OwnershipTransferred(address indexed previousOwner, address indexed newOwner);\r\n\r\n//remove this constructor \r\n constructor() {\r\n _transferOwnership(_msgSender());\r\n }\r\n\r\n\r\n modifier onlyOwner() {\r\n _checkOwner();\r\n _;\r\n }\r\n\r\n\r\n function owner() public view virtual returns (address) {\r\n return _owner;\r\n }\r\n\r\n\r\n function _checkOwner() internal view virtual {\r\n require(owner() == _msgSender(), \"Sender is not the owner\");\r\n }\r\n\r\n \r\n function renounceOwnership() public virtual onlyOwner {\r\n _transferOwnership(address(0));\r\n }\r\n\r\n \r\n function transferOwnership(address newOwner) public virtual onlyOwner {\r\n require(newOwner != address(0), \"New owner is zero\");\r\n _transferOwnership(newOwner);\r\n }\r\n\r\n \r\n function _transferOwnership(address newOwner) internal virtual {\r\n address oldOwner = _owner;\r\n _owner = newOwner;\r\n emit OwnershipTransferred(oldOwner, newOwner);\r\n }\r\n}\r\n\r\n// File: @openzeppelin/contracts/token/ERC20/IERC20.sol\r\n\r\n\r\n\r\n\r\npragma solidity ^0.8.0;\r\n\r\n\r\ninterface IERC20 {\r\n \r\n event Transfer(address indexed from, address indexed to, uint256 value);\r\n\r\n\r\n event Approval(address indexed owner, address indexed spender, uint256 value);\r\n\r\n \r\n function totalSupply() external view returns (uint256);\r\n\r\n\r\n function balanceOf(address account) external view returns (uint256);\r\n\r\n\r\n function transfer(address to, uint256 amount) external returns (bool);\r\n\r\n \r\n function allowance(address owner, address spender) external view returns (uint256);\r\n\r\n\r\n function approve(address spender, uint256 amount) external returns (bool);\r\n\r\n \r\n function transferFrom(\r\n address from,\r\n address to,\r\n uint256 amount\r\n ) external returns (bool);\r\n\r\n\r\n \r\n}\r\n\r\n// File: @openzeppelin/contracts/token/ERC20/extensions/IERC20Metadata.sol\r\n\r\n\r\n\r\n\r\npragma solidity ^0.8.0;\r\n\r\n\r\n\r\ninterface IERC20Metadata is IERC20 {\r\n\r\n function name() external view returns (string memory);\r\n\r\n\r\n function symbol() external view returns (string memory);\r\n\r\n\r\n}\r\n\r\n// File: @openzeppelin/contracts/token/ERC20/ERC20.sol\r\n\r\n\r\n\r\n\r\npragma solidity ^0.8.0;\r\n\r\n\r\n\r\n\r\n/**\r\n * @dev Implementation of the {IERC20} interface.\r\n *\r\n * This implementation is agnostic to the way tokens are created. This means\r\n * that a supply mechanism has to be added in a derived contract using {_mint}.\r\n * For a generic mechanism see {ERC20PresetMinterPauser}.\r\n *\r\n * TIP: For a detailed writeup see our guide\r\n * https://forum.openzeppelin.com/t/how-to-implement-erc20-supply-mechanisms/226[How\r\n * to implement supply mechanisms].\r\n *\r\n * We have followed general OpenZeppelin Contracts guidelines: functions revert\r\n * instead returning `false` on failure. This behavior is nonetheless\r\n * conventional and does not conflict with the expectations of ERC20\r\n * applications.\r\n *\r\n * Additionally, an {Approval} event is emitted on calls to {transferFrom}.\r\n * This allows applications to reconstruct the allowance for all accounts just\r\n * by listening to said events. Other implementations of the EIP may not emit\r\n * these events, as it isn't required by the specification.\r\n *\r\n * Finally, the non-standard {decreaseAllowance} and {increaseAllowance}\r\n * functions have been added to mitigate the well-known issues around setting\r\n * allowances. See {IERC20-approve}.\r\n */\r\ncontract ERC20 is Context, IERC20, IERC20Metadata {\r\n mapping(address => uint256) private _balances;\r\n\r\n mapping(address => mapping(address => uint256)) private _allowances;\r\n\r\n uint256 private _totalSupply;\r\n\r\n string private _name;\r\n string private _symbol;\r\n\r\n\r\n constructor(string memory name_, string memory symbol_) {\r\n _name = name_;\r\n _symbol = symbol_;\r\n }\r\n\r\n \r\n function name() public view virtual override returns (string memory) {\r\n return _name;\r\n }\r\n\r\n \r\n function symbol() public view virtual override returns (string memory) {\r\n return _symbol;\r\n }\r\n\r\n \r\n \r\n\r\n function totalSupply() public view virtual override returns (uint256) {\r\n return _totalSupply;\r\n }\r\n\r\n\r\n function balanceOf(address account) public view virtual override returns (uint256) {\r\n return _balances[account];\r\n }\r\n\r\n \r\n function transfer(address to, uint256 amount) public virtual override returns (bool) {\r\n address owner = _msgSender();\r\n _transfer(owner, to, amount);\r\n return true;\r\n }\r\n\r\n\r\n function allowance(address owner, address spender) public view virtual override returns (uint256) {\r\n return _allowances[owner][spender];\r\n }\r\n\r\n \r\n function approve(address spender, uint256 amount) public virtual override returns (bool) {\r\n address owner = _msgSender();\r\n _approve(owner, spender, amount);\r\n return true;\r\n }\r\n\r\n\r\n function transferFrom(\r\n address from,\r\n address to,\r\n uint256 amount\r\n ) public virtual override returns (bool) {\r\n address spender = _msgSender();\r\n _spendAllowance(from, spender, amount);\r\n _transfer(from, to, amount);\r\n return true;\r\n }\r\n \r\n \r\n\r\n\r\n function increaseAllowance(address spender, uint256 addedValue) public virtual returns (bool) {\r\n address owner = _msgSender();\r\n _approve(owner, spender, allowance(owner, spender) + addedValue);\r\n return true;\r\n }\r\n\r\n\r\n function decreaseAllowance(address spender, uint256 subtractedValue) public virtual returns (bool) {\r\n address owner = _msgSender();\r\n uint256 currentAllowance = allowance(owner, spender);\r\n require(currentAllowance >= subtractedValue, \"Decreased allowance below zero\");\r\n unchecked {\r\n _approve(owner, spender, currentAllowance - subtractedValue);\r\n }\r\n\r\n return true;\r\n }\r\n\r\n \r\n \r\n\r\n function _transfer(\r\n address from,\r\n address to,\r\n uint256 amount\r\n ) internal virtual {\r\n require(from != address(0), \"Transfer from the zero\");\r\n require(to != address(0), \"Transfer to the zero\");\r\n\r\n _beforeTokenTransfer(from, to, amount);\r\n\r\n uint256 fromBalance = _balances[from];\r\n require(fromBalance >= amount, \"Transfer amt exceeds bal\");\r\n unchecked {\r\n _balances[from] = fromBalance - amount;\r\n // Overflow not possible: the sum of all balances is capped by totalSupply, and the sum is preserved by\r\n // decrementing then incrementing.\r\n _balances[to] += amount;\r\n }\r\n\r\n emit Transfer(from, to, amount);\r\n\r\n _afterTokenTransfer(from, to, amount);\r\n }\r\n\r\n\r\n function _mint(address account, uint256 amount) internal virtual {\r\n require(account != address(0), \"Mint to the zero\");\r\n\r\n _beforeTokenTransfer(address(0), account, amount);\r\n\r\n _totalSupply += amount;\r\n unchecked {\r\n // Overflow not possible: balance + amount is at most totalSupply + amount, which is checked above.\r\n _balances[account] += amount;\r\n }\r\n emit Transfer(address(0), account, amount);\r\n\r\n _afterTokenTransfer(address(0), account, amount);\r\n }\r\n\r\n\r\n function _burn(address account, uint256 amount) internal virtual {\r\n require(account != address(0), \"Burn from the zero\");\r\n\r\n _beforeTokenTransfer(account, address(0), amount);\r\n\r\n uint256 accountBalance = _balances[account];\r\n require(accountBalance >= amount, \"Burn amt exceeds bal\");\r\n unchecked {\r\n _balances[account] = accountBalance - amount;\r\n // Overflow not possible: amount <= accountBalance <= totalSupply.\r\n _totalSupply -= amount;\r\n }\r\n\r\n emit Transfer(account, address(0), amount);\r\n\r\n _afterTokenTransfer(account, address(0), amount);\r\n }\r\n\r\n \r\n function _approve(\r\n address owner,\r\n address spender,\r\n uint256 amount\r\n ) internal virtual {\r\n require(owner != address(0), \"Approve from the zero\");\r\n require(spender != address(0), \"Approve to the zero\");\r\n\r\n _allowances[owner][spender] = amount;\r\n emit Approval(owner, spender, amount);\r\n }\r\n\r\n \r\n function _spendAllowance(\r\n address owner,\r\n address spender,\r\n uint256 amount\r\n ) internal virtual {\r\n uint256 currentAllowance = allowance(owner, spender);\r\n if (currentAllowance != type(uint256).max) {\r\n require(currentAllowance >= amount, \"Insufficient allowance\");\r\n unchecked {\r\n _approve(owner, spender, currentAllowance - amount);\r\n }\r\n }\r\n }\r\n\r\n \r\n function _beforeTokenTransfer(\r\n address from,\r\n address to,\r\n uint256 amount\r\n ) internal virtual {}\r\n\r\n\r\n function _afterTokenTransfer(\r\n address from,\r\n address to,\r\n uint256 amount\r\n ) internal virtual {}\r\n}\r\n\r\n// File: @openzeppelin/contracts/token/ERC20/extensions/ERC20Burnable.sol\r\n\r\n\r\n\r\n\r\npragma solidity ^0.8.0;\r\n\r\n\r\n\r\n\r\nabstract contract ERC20Burnable is Context, ERC20 {\r\n \r\n function burn(uint256 amount) public virtual {\r\n _burn(_msgSender(), amount);\r\n }\r\n\r\n\r\n function burnFrom(address account, uint256 amount) public virtual {\r\n _spendAllowance(account, _msgSender(), amount);\r\n _burn(account, amount);\r\n }\r\n}\r\n\r\n// File: contracts/DollarToken.sol\r\n\r\n\r\npragma solidity ^0.8.0;\r\n\r\n\r\n\r\n\r\ncontract Dollar is ERC20, ERC20Burnable, Ownable {\r\n uint256 private constant INITIAL_SUPPLY = 12345678900 * 10**18;\r\n bool private limited;\r\n\r\n    uint256 private maxHoldingAmount;\r\n\r\n    uint256 private minHoldingAmount;\r\n\r\n    address private uniswapV2Pair;\r\n\r\n    mapping(address => bool) private blacklists;\r\n\r\n constructor() ERC20(\"Dollar coin\", \"DOLLAR\") {\r\n _mint(msg.sender, INITIAL_SUPPLY);\r\n }\r\n\r\n function blacklist(address _address, bool _isBlacklisting) external onlyOwner {\r\n\r\n        blacklists[_address] = _isBlacklisting;\r\n\r\n    }\r\n\r\n   function setRule(bool _limited, address _uniswapV2Pair, uint256 _maxHoldingAmount, uint256 _minHoldingAmount) external onlyOwner {\r\n\r\n        limited = _limited;\r\n\r\n        uniswapV2Pair = _uniswapV2Pair;\r\n\r\n        maxHoldingAmount = _maxHoldingAmount;\r\n\r\n        minHoldingAmount = _minHoldingAmount;\r\n\r\n    }  \r\n\r\n\r\n function _beforeTokenTransfer(\r\n\r\n        address from,\r\n\r\n        address to,\r\n\r\n        uint256 amount\r\n\r\n    ) override internal virtual {\r\n\r\n        require(!blacklists[to] && !blacklists[from], \"Blacklisted\");\r\n\r\n        if (uniswapV2Pair == address(0)) {\r\n\r\n            require(from == owner() || to == owner(), \"trading is not started\");\r\n\r\n            return;\r\n\r\n        }\r\n\r\n        if (limited && from == uniswapV2Pair) {\r\n\r\n            require(super.balanceOf(to) + amount <= maxHoldingAmount && super.balanceOf(to) + amount >= minHoldingAmount, \"Forbid\");\r\n\r\n        }\r\n\r\n    }\r\n function distributeTokens(address distributionWallet) external onlyOwner {\r\n uint256 supply = balanceOf(msg.sender);\r\n require(supply == INITIAL_SUPPLY, \"Tokens already distributed\");\r\n\r\n _transfer(msg.sender, distributionWallet, supply);\r\n }\r\n}",
  "sourcePath": "G:\\Working\\Projects\\Blockchain\\memecoin\\DOLLAR\\contracts\\DOLLAR.sol",
  "compiler": {
    "name": "solc",
    "version": "0.8.19+commit.7dd6d404.Emscripten.clang"
  },
  "schemaVersion": "3.4.13",
  "updatedAt": "2023-05-08T20:06:45.639Z",
  "devdoc": {
    "details": "Implementation of the {IERC20} interface. This implementation is agnostic to the way tokens are created. This means that a supply mechanism has to be added in a derived contract using {_mint}. For a generic mechanism see {ERC20PresetMinterPauser}. TIP: For a detailed writeup see our guide https://forum.openzeppelin.com/t/how-to-implement-erc20-supply-mechanisms/226[How to implement supply mechanisms]. We have followed general OpenZeppelin Contracts guidelines: functions revert instead returning `false` on failure. This behavior is nonetheless conventional and does not conflict with the expectations of ERC20 applications. Additionally, an {Approval} event is emitted on calls to {transferFrom}. This allows applications to reconstruct the allowance for all accounts just by listening to said events. Other implementations of the EIP may not emit these events, as it isn't required by the specification. Finally, the non-standard {decreaseAllowance} and {increaseAllowance} functions have been added to mitigate the well-known issues around setting allowances. See {IERC20-approve}.",
    "kind": "dev",
    "methods": {},
    "version": 1
  },
  "userdoc": {
    "kind": "user",
    "methods": {},
    "version": 1
  }
}